:100000000C9434000C9451000C9451000C94510049
:100010000C9451000C9451000C9451000C9451001C
:100020000C9451000C9451000C9451000C948903D1
:100030000C9451000C9451000C9451000C945100FC
:100040000C9451000C9451000C9451000C945100EC
:100050000C9451000C9451000C9451000C945100DC
:100060000C9451000C94510011241FBECFEFD8E026
:10007000DEBFCDBF11E0A0E0B1E0E2ECF1E102C0F3
:1000800005900D92AE37B107D9F721E0AEE7B1E0A8
:1000900001C01D92AF39B207E1F70E946B040C94C6
:1000A000DF080C9400000097F9F0FC01608374B144
:1000B00021E030E0A90102C0440F551F6A95E2F724
:1000C000472B44B945B1008002C0220F331F0A9468
:1000D000E2F7242B25B9FFE32DE083E0F150204027
:1000E0008040E1F700C000000895FC01892B09F46D
:1000F000A4C085E008C0A82FB0E01197AE0FBF1FC5
:1001000011961C9281508111F6CF44B181E090E0AC
:100110009C01008002C0220F331F0A94E2F7242BB7
:1001200024B945B19C01008002C0220F331F0A94FC
:10013000E2F7242B25B92FE33DE043E02150304086
:100140004040E1F700C0000035B1AC01008002C0C2
:10015000440F551F0A94E2F7242F2095232325B935
:10016000A9EFB0E01197F1F700C0000045B19C0184
:10017000008002C0220F331F0A94E2F7242B25B916
:10018000BDE0BA95F1F7000024B1008002C0880FED
:10019000991F0A94E2F78095822384B983B1208164
:1001A000422F90E002C0959587952A95E2F780FF4F
:1001B000F5CF83B190E0042E02C0959587950A94FF
:1001C000E2F780FDF6CF80E060E878E227C023B157
:1001D00030E0042E02C0359527950A94E2F720FFFF
:1001E000F6CF90E001C09F5F23B130E0042E02C043
:1001F000359527950A94E2F720FDF5CF953048F024
:10020000DF01A80FB11D11969C911197962B1196A5
:100210009C93669511F48F5F60E871507111D7CF90
:1002200084E001C081508111FDCF8581811107C01B
:100230008181882331F081E008958FEF08958FEF59
:1002400008958FEF0895EF92FF920F931F93CF932E
:10025000DF93009709F441C07A018B01EC010E9401
:1002600075008823D9F1698170E0762F66278A812D
:10027000682B072E000C880B990B0E949507F7013D
:10028000608371838283938320E030E040E251E415
:100290000E94EB06F70160837183828393836B81F5
:1002A00070E0762F66278C81682B072E000C880B58
:1002B000990B0E949507F801608371838283938371
:1002C00020E030E040E251E40E94EB06F801608358
:1002D00071838283938381E001C08FEFDF91CF919F
:1002E0001F910F91FF90EF9008958BB180648BB9AF
:1002F00000008BB18F7B8BB90895CF93C82F6623F5
:1003000021F08BB180618BB903C08BB18F7E8BB92B
:100310008BB18F7D8BB98AB188608AB98AB18460CC
:100320008AB98AB182608AB98AB181608AB98BB18F
:100330008E7F8BB98BB18D7F8BB98BB18B7F8BB956
:100340008BB1877F8BB9CC231CF48BB181608BB9C7
:10035000C6FF03C08BB182608BB9C5FF03C08BB1F0
:1003600084608BB9C4FF03C08BB188608BB90E94D5
:1003700075018BB18E7F8BB98BB18D7F8BB98BB1B2
:100380008B7F8BB98BB1877F8BB9C3FF03C08BB1D8
:1003900081608BB9C2FF03C08BB182608BB9C1FF92
:1003A00003C08BB184608BB9C0FF03C08BB1886080
:1003B0008BB90E9475018BB188608BB98BB1846059
:1003C0008BB98BB182608BB98BB181608BB9CF91C6
:1003D0000895882321F08BB180618BB903C08BB164
:1003E0008F7E8BB98BB180628BB98AB1877F8AB9D6
:1003F0008AB18B7F8AB98AB18D7F8AB98AB18E7FA3
:100400008AB98BB180648BB900004B9902C080E03F
:1004100001C080E14A998062499980644899806866
:100420009BB19F7B9BB900009BB190649BB900007E
:100430004B9981604A9982604999846048998860A3
:100440009BB19F7B9BB9089580E00E94E9018823BE
:10045000DCF300C000C080E00E94E9010895CF9362
:10046000C82F0E94240260E08C2F0E947D01CF9152
:100470000895611104C080580E942F02089580548D
:100480000E942F02089581E00E942F02089582E0C9
:100490000E942F020895CF93C82F0E942402CA30D1
:1004A00049F4803410F480E401C080E080580E9458
:1004B0002F0204C061E08C2F0E947D01CF9108952E
:1004C000CF93DF93FC0103C00E944B02FE01EF01BA
:1004D000219680818111F8CFDF91CF910895CF933C
:1004E000C82F8AB180618AB98AB180628AB98AB11B
:1004F00080648AB98AB188608AB98AB184608AB90D
:100500008AB182608AB98AB181608AB98FE99FE035
:100510000197F1F700C000008BB184608BB98BB1FB
:1005200088608BB90E94750181EE94E00197F1F724
:1005300000C000000E94750195E19A95F1F7000056
:100540000E94750185E18A95F1F700008BB1877FE4
:100550008BB90E94750195E19A95F1F7000088E248
:100560000E942F0288E00E942F020E94430286E030
:100570000E942F028C2F0E942F02CF91089587B1E5
:100580008E7F87B987B1877F87B90895309B0DC06B
:100590002FE788E391E0215080409040E1F700C0D0
:1005A0000000309B04C081E0089580E0089580E061
:1005B0000895339B0DC02FE788E391E021508040E0
:1005C0009040E1F700C00000339B04C081E0089533
:1005D00080E0089580E0089587B1846087B9089528
:1005E00088B18B7F88B9089588B1846088B90895EF
:1005F00087B1826087B9089588B18D7F88B90895E1
:1006000088B1826088B90895F89410928000E1E87A
:10061000F0E0108288EC93E090938900809388004A
:100620008081886080838081816080838081846014
:100630008083EFE6F0E08081826080837894089583
:10064000F894109288011092870110928C011092F8
:100650008B0110928E0110928D0110928A011092DE
:1006600089011092980110929701109296011092B0
:1006700095011092940110929301109292011092A0
:1006800091011092900110928F01109283011092AB
:100690008401109285011092860110927F011092C0
:1006A000800110928101109282010E94F0020E944A
:1006B000FC020E94040308958CE00E946F020E94D5
:1006C000BF020E94F80260E089E991E00E945300B5
:1006D0000E94EC020E9404030E94F0020E94FC02AD
:1006E000089580910401882339F085B18B7F85B905
:1006F00085B1826085B906C085B18D7F85B985B128
:10070000846085B99091040181E089278093040178
:1007100008951F920F920FB60F9211248F939F93FB
:10072000EF93FF93E1E8F0E01082809197019091C0
:1007300098010196909398018093970180818D6034
:100740008083FF91EF919F918F910F900FBE0F903B
:100750001F9018958F929F92AF92BF92CF92DF9287
:10076000EF92FF920F931F93CF93DF93CDB7DEB736
:100770002A970FB6F894DEBF0FBECDBF69017A018C
:1007800020E030E048EC52E40E944A084B015C0152
:1007900020E030E048EC52E4C701B6010E944A086C
:1007A0006B017C01C501B4010E945D07062F172F64
:1007B000C701B6010E945D07E62F472F24E030E015
:1007C00023C00F2EFAE0EF2EF12CF02D802F912F69
:1007D000B7010E94B708A1E0B0E0AC0FBD1FA20FA7
:1007E000B31F8C93062F172F8E2F942FB7010E94C3
:1007F000B708E6E0F0E0EC0FFD1FE20FF31F808387
:10080000E62F472F215031093323DCF60E944302A3
:100810000E9447028BE091E00E94600200E010E03D
:1008200018C0E1E0F0E0EC0FFD1FE00FF11FF080D9
:10083000F11003C00115110551F00330110519F431
:100840008EE20E944B0280E38F0D0E944B020F5FED
:100850001F4F0530110528F383E40E944B0261E02D
:1008600080E00E94390281E191E00E94600200E094
:1008700010E018C0E6E0F0E0EC0FFD1FE00FF11F04
:10088000F080F11003C00115110551F0033011057E
:1008900019F48EE20E944B0280E38F0D0E944B02FE
:1008A0000F5F1F4F0530110528F385E20E944B02B0
:1008B0002A960FB6F894DEBF0FBECDBFDF91CF9161
:1008C0001F910F91FF90EF90DF90CF90BF90AF906E
:1008D0009F908F900895DF92EF92FF920F931F9356
:1008E000CF93DF930E945C030E94D90281110E9482
:1008F00020038091970190919801909396018093A5
:1009000095018091970190919801CC97F4F1109204
:1009100096011092950110928E0110928D01109205
:100920008A011092890110928C0110928B01109211
:1009300098011092970180919301909194010196F2
:100940009093940180939301CC97F9F410929401C1
:100950001092930180919101909192010196909350
:10096000920180939101489781F410929201109224
:10097000910180918F019091900101969093900147
:1009800080938F01469709F4A2C180918F019091C5
:1009900090014497C4F48091950190919601209123
:1009A0008B0130918C01AC01421B530B209107014C
:1009B000309108012417350734F490938C0180930B
:1009C0008B010E9471038091950190919601209175
:1009D0008D0130918E01AC01421B530B2091090116
:1009E00030910A012417350724F490938E018093E7
:1009F0008D01F8944FE751E063E871E089E991E0F7
:100A00000E94230180937E0178940E94C60288236D
:100A100049F180917E01811112C00E9447020E941B
:100A200043028BE291E00E9460022FEF81EE94E09E
:100A3000215080409040E1F700C0000082C020912A
:100A40007F0130918001409181015091820160913C
:100A500083017091840180918501909186010E94AB
:100A6000AA036FC00E9447020E9443028DE391E0F7
:100A70000E9460028AE491E00E94600261E083E0EB
:100A80000E94390280918F01909190012AE030E01C
:100A9000B9010E94B708482FCB01B9010E94B708DD
:100AA000D82E8091910190919201B9010E94B708CE
:100AB000E82ECB01B9010E94B708F82E809193016E
:100AC00090919401B9010E94B708082FCB01B90198
:100AD0000E94B708182F8091950190919601B90155
:100AE0000E94B708C82FCB01B9010E94B708D82FC0
:100AF00080E3840F0E944B0280E38D0D0E944B0225
:100B00008AE30E944B0280E38E0D0E944B0280E339
:100B10008F0D0E944B028AE30E944B0280E3800FFC
:100B20000E944B0280E3810F0E944B028AE30E94E5
:100B30004B0280E38D0F0E944B0280E38C0F0E94DA
:100B40004B0260910001709101018091020190912E
:100B500003012DEC3CEC4CE45FE30E94790620910C
:100B600083013091840140918501509186010E945A
:100B7000450818160CF050C00E9400030E94F402B1
:100B800080919501909196012091890130918A017F
:100B9000AC01421B530B2091050130910601241733
:100BA0003507D4F520918801211136C090938A0130
:100BB000809389010E94430260E083E00E94390231
:100BC0008FE491E00E94600261E082E00E943902BD
:100BD00089E591E00E9460020E94430260E083E0A8
:100BE0000E9439028FE491E00E94600261E082E09D
:100BF0000E94390289E591E00E9460022FEF81EEA8
:100C000094E0215080409040E1F700C0000081E076
:100C10008093880110928701609100017091010119
:100C2000809102019091030120E030E040EC5FE30D
:100C30000E947A06209183013091840140918501C0
:100C4000509186010E94E60688230CF04DCE0E944A
:100C5000F0020E94FC0280919501909196012091F2
:100C6000890130918A01AC01421B530B209105018F
:100C700030910601241735070CF036CE20918701FC
:100C8000211132CE90938A01809389010E94430200
:100C900060E083E00E94390286E691E00E946002F3
:100CA00061E082E00E94390280E791E00E946002E8
:100CB0002FEF81EE94E0215080409040E1F700C09A
:100CC000000081E080938701109288010DCE0E9480
:100CD00043020E94470286E191E00E94600280E0A8
:100CE00090E0DF91CF911F910F91FF90EF90DF90F7
:100CF00008955058BB27AA270E9491060C940B0810
:100D00000E94FD0738F00E94040820F039F49F3F4C
:100D100019F426F40C94FA070EF4E095E7FB0C9412
:100D2000F407E92F0E941C0858F3BA1762077307EB
:100D30008407950720F079F4A6F50C943E080EF48C
:100D4000E0950B2EBA2FA02D0B01B90190010C01DB
:100D5000CA01A0011124FF27591B99F0593F50F4F3
:100D6000503E68F11A16F040A22F232F342F44274B
:100D7000585FF3CF469537952795A795F040539543
:100D8000C9F77EF41F16BA0B620B730B840BBAF013
:100D90009150A1F0FF0FBB1F661F771F881FC2F77E
:100DA0000EC0BA0F621F731F841F48F48795779592
:100DB0006795B795F7959E3F08F0B0CF9395880F4C
:100DC00008F09927EE0F9795879508950E94D00710
:100DD00008F481E008950E94FF060C940B080E941D
:100DE000040858F00E94FD0740F029F45F3F29F005
:100DF0000C94F40751110C943F080C94FA070E94CC
:100E00001C0868F39923B1F3552391F3951B550BF7
:100E1000BB27AA2762177307840738F09F5F5F4FCD
:100E2000220F331F441FAA1FA9F335D00E2E3AF00C
:100E3000E0E832D091505040E695001CCAF72BD024
:100E4000FE2F29D0660F771F881FBB1F2617370775
:100E50004807AB07B0E809F0BB0B802DBF01FF27A7
:100E600093585F4F3AF09E3F510578F00C94F40789
:100E70000C943F085F3FE4F3983ED4F38695779552
:100E80006795B795F7959F5FC9F7880F911D969560
:100E9000879597F90895E1E0660F771F881FBB1FBC
:100EA000621773078407BA0720F0621B730B840B69
:100EB000BA0BEE1F88F7E09508950E9464076894C6
:100EC000B1110C943F0808950E94240888F09F57A0
:100ED00098F0B92F9927B751B0F0E1F0660F771F5E
:100EE000881F991F1AF0BA95C9F714C0B13091F054
:100EF0000E943E08B1E008950C943E08672F782FB9
:100F00008827B85F39F0B93FCCF386957795679518
:100F1000B395D9F73EF490958095709561957F4F84
:100F20008F4F9F4F0895E89409C097FB3EF490952A
:100F30008095709561957F4F8F4F9F4F9923A9F0B2
:100F4000F92F96E9BB279395F69587957795679541
:100F5000B795F111F8CFFAF4BB0F11F460FF1BC085
:100F60006F5F7F4F8F4F9F4F16C0882311F096E918
:100F700011C0772321F09EE8872F762F05C06623C6
:100F800071F096E8862F70E060E02AF09A95660F7F
:100F9000771F881FDAF7880F9695879597F9089538
:100FA000990F0008550FAA0BE0E8FEEF161617067A
:100FB000E807F907C0F012161306E407F50798F0E2
:100FC000621B730B840B950B39F40A2661F0232BFB
:100FD000242B252B21F408950A2609F4A140A69577
:100FE0008FEF811D811D089597F99F6780E870E05C
:100FF00060E008959FEF80EC089500240A9416168F
:10100000170618060906089500240A9412161306F6
:10101000140605060895092E0394000C11F4882384
:1010200052F0BB0F40F4BF2B11F460FF04C06F5FA0
:101030007F4F8F4F9F4F089557FD9058440F551F76
:1010400059F05F3F71F04795880F97FB991F61F04A
:101050009F3F79F087950895121613061406551FC1
:10106000F2CF4695F1DF08C0161617061806991F2D
:10107000F1CF86957105610508940895E894BB2722
:1010800066277727CB0197F908950E94D00708F4C7
:101090008FEF08950E945D080C940B080E94FD07D5
:1010A00038F00E94040820F0952311F00C94F40706
:1010B0000C94FA0711240C943F080E941C0870F34A
:1010C000959FC1F3950F50E0551F629FF001729FED
:1010D000BB27F00DB11D639FAA27F00DB11DAA1FFC
:1010E000649F6627B00DA11D661F829F2227B00D49
:1010F000A11D621F739FB00DA11D621F839FA00DD4
:10110000611D221F749F3327A00D611D231F849F23
:10111000600D211D822F762F6A2F11249F5750407A
:101120009AF0F1F088234AF0EE0FFF1FBB1F661FF5
:10113000771F881F91505040A9F79E3F510580F0BE
:101140000C94F4070C943F085F3FE4F3983ED4F30B
:10115000869577956795B795F795E7959F5FC1F762
:10116000FE2B880F911D9695879597F9089597FB0B
:10117000072E16F4009407D077FD09D00E94CB0803
:1011800007FC05D03EF4909581959F4F089570958A
:1011900061957F4F0895AA1BBB1B51E107C0AA1F91
:1011A000BB1FA617B70710F0A61BB70B881F991F08
:1011B0005A95A9F780959095BC01CD010895F894B2
:0211C000FFCF5F
:1011C200000018420105000A000A0054656D703AD9
:1011D2000048756D3A00496E6375626174696F6E9D
:1011E20020697320656E64656421005265616469DB
:1011F2006E6720444854206572726F720020496EF7
:101202006375626174696F6E20005065723A0054B2
:101212004F4F20434F4C4421004C494748542049EA
:1012220053204F4E21004F5645524845415421000C
:0E1232004C49474854204953204F464621005E
:00000001FF
